{
  "contractName": "PatientRegistration",
  "abi": [
    {
      "anonymous": false,
      "inputs": [
        {
          "indexed": false,
          "internalType": "string",
          "name": "hhNumber",
          "type": "string"
        },
        {
          "indexed": false,
          "internalType": "string",
          "name": "name",
          "type": "string"
        },
        {
          "indexed": false,
          "internalType": "address",
          "name": "walletAddress",
          "type": "address"
        }
      ],
      "name": "PatientRegistered",
      "type": "event"
    },
    {
      "inputs": [
        {
          "internalType": "string",
          "name": "",
          "type": "string"
        },
        {
          "internalType": "string",
          "name": "",
          "type": "string"
        }
      ],
      "name": "doctorPermissions",
      "outputs": [
        {
          "internalType": "bool",
          "name": "",
          "type": "bool"
        }
      ],
      "stateMutability": "view",
      "type": "function",
      "constant": true
    },
    {
      "inputs": [
        {
          "internalType": "string",
          "name": "",
          "type": "string"
        }
      ],
      "name": "isPatientRegistered",
      "outputs": [
        {
          "internalType": "bool",
          "name": "",
          "type": "bool"
        }
      ],
      "stateMutability": "view",
      "type": "function",
      "constant": true
    },
    {
      "inputs": [
        {
          "internalType": "string",
          "name": "",
          "type": "string"
        }
      ],
      "name": "patients",
      "outputs": [
        {
          "internalType": "address",
          "name": "walletAddress",
          "type": "address"
        },
        {
          "internalType": "string",
          "name": "name",
          "type": "string"
        },
        {
          "internalType": "string",
          "name": "dateOfBirth",
          "type": "string"
        },
        {
          "internalType": "string",
          "name": "gender",
          "type": "string"
        },
        {
          "internalType": "string",
          "name": "bloodGroup",
          "type": "string"
        },
        {
          "internalType": "string",
          "name": "homeAddress",
          "type": "string"
        },
        {
          "internalType": "string",
          "name": "email",
          "type": "string"
        },
        {
          "internalType": "string",
          "name": "hhNumber",
          "type": "string"
        },
        {
          "internalType": "string",
          "name": "password",
          "type": "string"
        }
      ],
      "stateMutability": "view",
      "type": "function",
      "constant": true
    },
    {
      "inputs": [
        {
          "internalType": "address",
          "name": "_walletAddress",
          "type": "address"
        },
        {
          "internalType": "string",
          "name": "_name",
          "type": "string"
        },
        {
          "internalType": "string",
          "name": "_dateOfBirth",
          "type": "string"
        },
        {
          "internalType": "string",
          "name": "_gender",
          "type": "string"
        },
        {
          "internalType": "string",
          "name": "_bloodGroup",
          "type": "string"
        },
        {
          "internalType": "string",
          "name": "_homeAddress",
          "type": "string"
        },
        {
          "internalType": "string",
          "name": "_email",
          "type": "string"
        },
        {
          "internalType": "string",
          "name": "_hhNumber",
          "type": "string"
        },
        {
          "internalType": "string",
          "name": "_password",
          "type": "string"
        }
      ],
      "name": "registerPatient",
      "outputs": [],
      "stateMutability": "nonpayable",
      "type": "function"
    },
    {
      "inputs": [
        {
          "internalType": "string",
          "name": "_hhNumber",
          "type": "string"
        }
      ],
      "name": "isRegisteredPatient",
      "outputs": [
        {
          "internalType": "bool",
          "name": "",
          "type": "bool"
        }
      ],
      "stateMutability": "view",
      "type": "function",
      "constant": true
    },
    {
      "inputs": [
        {
          "internalType": "string",
          "name": "_hhNumber",
          "type": "string"
        },
        {
          "internalType": "string",
          "name": "_password",
          "type": "string"
        }
      ],
      "name": "validatePassword",
      "outputs": [
        {
          "internalType": "bool",
          "name": "",
          "type": "bool"
        }
      ],
      "stateMutability": "view",
      "type": "function",
      "constant": true
    },
    {
      "inputs": [
        {
          "internalType": "string",
          "name": "_hhNumber",
          "type": "string"
        }
      ],
      "name": "getPatientDetails",
      "outputs": [
        {
          "internalType": "address",
          "name": "walletAddress",
          "type": "address"
        },
        {
          "internalType": "string",
          "name": "name",
          "type": "string"
        },
        {
          "internalType": "string",
          "name": "dateOfBirth",
          "type": "string"
        },
        {
          "internalType": "string",
          "name": "gender",
          "type": "string"
        },
        {
          "internalType": "string",
          "name": "bloodGroup",
          "type": "string"
        },
        {
          "internalType": "string",
          "name": "homeAddress",
          "type": "string"
        },
        {
          "internalType": "string",
          "name": "email",
          "type": "string"
        }
      ],
      "stateMutability": "view",
      "type": "function",
      "constant": true
    },
    {
      "inputs": [
        {
          "internalType": "string",
          "name": "_patientNumber",
          "type": "string"
        },
        {
          "internalType": "string",
          "name": "_doctorNumber",
          "type": "string"
        },
        {
          "internalType": "string",
          "name": "_patientName",
          "type": "string"
        }
      ],
      "name": "grantPermission",
      "outputs": [],
      "stateMutability": "nonpayable",
      "type": "function"
    },
    {
      "inputs": [
        {
          "internalType": "string",
          "name": "_patientNumber",
          "type": "string"
        },
        {
          "internalType": "string",
          "name": "_doctorNumber",
          "type": "string"
        }
      ],
      "name": "revokePermission",
      "outputs": [],
      "stateMutability": "nonpayable",
      "type": "function"
    },
    {
      "inputs": [
        {
          "internalType": "string",
          "name": "_patientNumber",
          "type": "string"
        },
        {
          "internalType": "string",
          "name": "_doctorNumber",
          "type": "string"
        }
      ],
      "name": "isPermissionGranted",
      "outputs": [
        {
          "internalType": "bool",
          "name": "",
          "type": "bool"
        }
      ],
      "stateMutability": "view",
      "type": "function",
      "constant": true
    },
    {
      "inputs": [
        {
          "internalType": "string",
          "name": "_doctorNumber",
          "type": "string"
        }
      ],
      "name": "getPatientList",
      "outputs": [
        {
          "components": [
            {
              "internalType": "string",
              "name": "patient_number",
              "type": "string"
            },
            {
              "internalType": "string",
              "name": "patient_name",
              "type": "string"
            }
          ],
          "internalType": "struct PatientRegistration.PatientList[]",
          "name": "",
          "type": "tuple[]"
        }
      ],
      "stateMutability": "view",
      "type": "function",
      "constant": true
    },
    {
      "inputs": [
        {
          "internalType": "string",
          "name": "_patientNumber",
          "type": "string"
        }
      ],
      "name": "getDoctorList",
      "outputs": [
        {
          "internalType": "string[]",
          "name": "",
          "type": "string[]"
        }
      ],
      "stateMutability": "view",
      "type": "function",
      "constant": true
    }
  ],
  "bytecode": "0x608060405234801561001057600080fd5b50612d58806100206000396000f3fe608060405234801561001057600080fd5b50600436106100b45760003560e01c8063ac5f9fd011610071578063ac5f9fd0146101b1578063c6009d84146101cd578063d120c10c14610205578063d9ed6b3114610235578063ea977fc814610265578063f72526411461029b576100b4565b806344334733146100b95780634f10c6c2146100e957806357812a08146101195780635df67040146101355780637babdb261461015157806391c12f7614610181575b600080fd5b6100d360048036038101906100ce9190611d9a565b6102cb565b6040516100e09190611e2d565b60405180910390f35b61010360048036038101906100fe9190611e48565b610326565b6040516101109190611e2d565b60405180910390f35b610133600480360381019061012e9190611eef565b61035c565b005b61014f600480360381019061014a9190612099565b6105ba565b005b61016b60048036038101906101669190611d9a565b61085f565b6040516101789190611e2d565b60405180910390f35b61019b60048036038101906101969190611e48565b610942565b6040516101a891906122c5565b60405180910390f35b6101cb60048036038101906101c69190611d9a565b610ae3565b005b6101e760048036038101906101e29190611e48565b610fdb565b6040516101fc99989796959493929190612340565b60405180910390f35b61021f600480360381019061021a9190611d9a565b61149f565b60405161022c9190611e2d565b60405180910390f35b61024f600480360381019061024a9190611e48565b6114f1565b60405161025c91906124c7565b60405180910390f35b61027f600480360381019061027a9190611e48565b6115e8565b60405161029297969594939291906124e9565b60405180910390f35b6102b560048036038101906102b09190611e48565b611baf565b6040516102c29190611e2d565b60405180910390f35b600482805160208101820180518482526020830160208501208183528095505050505050818051602081018201805184825260208301602085012081835280955050505050506000915091509054906101000a900460ff1681565b6000818051602081018201805184825260208301602085012081835280955050505050506000915054906101000a900460ff1681565b60008260405161036c91906125be565b908152602001604051809103902060009054906101000a900460ff16156103c8576040517f08c379a00000000000000000000000000000000000000000000000000000000081526004016103bf90612621565b60405180910390fd5b60006040518061012001604052808b73ffffffffffffffffffffffffffffffffffffffff1681526020018a81526020018981526020018881526020018781526020018681526020018581526020018481526020018381525090508060018460405161043391906125be565b908152602001604051809103902060008201518160000160006101000a81548173ffffffffffffffffffffffffffffffffffffffff021916908373ffffffffffffffffffffffffffffffffffffffff160217905550602082015181600101908161049d9190612857565b5060408201518160020190816104b39190612857565b5060608201518160030190816104c99190612857565b5060808201518160040190816104df9190612857565b5060a08201518160050190816104f59190612857565b5060c082015181600601908161050b9190612857565b5060e08201518160070190816105219190612857565b506101008201518160080190816105389190612857565b50905050600160008460405161054e91906125be565b908152602001604051809103902060006101000a81548160ff0219169083151502179055507f319ae3a95b9a410d647835a7e64d54ddf28faf35a698f0a2b63999585fa38edc838a8c6040516105a693929190612929565b60405180910390a150505050505050505050565b6004836040516105ca91906125be565b9081526020016040518091039020826040516105e691906125be565b908152602001604051809103902060009054906101000a900460ff1615610642576040517f08c379a0000000000000000000000000000000000000000000000000000000008152600401610639906129e0565b60405180910390fd5b6000805b60028460405161065691906125be565b90815260200160405180910390208054905081101561071e578460405160200161068091906125be565b604051602081830303815290604052805190602001206002856040516106a691906125be565b908152602001604051809103902082815481106106c6576106c5612a00565b5b90600052602060002090600202016000016040516020016106e79190612ab2565b604051602081830303815290604052805190602001200361070b576001915061071e565b808061071690612af8565b915050610646565b50806107b5576000604051806040016040528086815260200184815250905060028460405161074d91906125be565b9081526020016040518091039020819080600181540180825580915050600190039060005260206000209060020201600090919091909150600082015181600001908161079a9190612857565b5060208201518160010190816107b09190612857565b505050505b6003846040516107c591906125be565b9081526020016040518091039020839080600181540180825580915050600190039060005260206000200160009091909190915090816108059190612857565b50600160048560405161081891906125be565b90815260200160405180910390208460405161083491906125be565b908152602001604051809103902060006101000a81548160ff02191690831515021790555050505050565b6000808360405161087091906125be565b908152602001604051809103902060009054906101000a900460ff166108cb576040517f08c379a00000000000000000000000000000000000000000000000000000000081526004016108c290612b8c565b60405180910390fd5b6001836040516108db91906125be565b90815260200160405180910390206008016040516020016108fc9190612ab2565b604051602081830303815290604052805190602001208260405160200161092391906125be565b6040516020818303038152906040528051906020012014905092915050565b606060028260405161095491906125be565b9081526020016040518091039020805480602002602001604051908101604052809291908181526020016000905b82821015610ad857838290600052602060002090600202016040518060400160405290816000820180546109b590612670565b80601f01602080910402602001604051908101604052809291908181526020018280546109e190612670565b8015610a2e5780601f10610a0357610100808354040283529160200191610a2e565b820191906000526020600020905b815481529060010190602001808311610a1157829003601f168201915b50505050508152602001600182018054610a4790612670565b80601f0160208091040260200160405190810160405280929190818152602001828054610a7390612670565b8015610ac05780601f10610a9557610100808354040283529160200191610ac0565b820191906000526020600020905b815481529060010190602001808311610aa357829003601f168201915b50505050508152505081526020019060010190610982565b505050509050919050565b600482604051610af391906125be565b908152602001604051809103902081604051610b0f91906125be565b908152602001604051809103902060009054906101000a900460ff1615610fd7576000600483604051610b4291906125be565b908152602001604051809103902082604051610b5e91906125be565b908152602001604051809103902060006101000a81548160ff0219169083151502179055506000600282604051610b9591906125be565b908152602001604051809103902080549050905060005b81811015610e105783604051602001610bc591906125be565b60405160208183030381529060405280519060200120600284604051610beb91906125be565b90815260200160405180910390208281548110610c0b57610c0a612a00565b5b9060005260206000209060020201600001604051602001610c2c9190612ab2565b6040516020818303038152906040528051906020012003610dfd57600182610c549190612bac565b8114610d9157600283604051610c6a91906125be565b9081526020016040518091039020600183610c859190612bac565b81548110610c9657610c95612a00565b5b9060005260206000209060020201600001600284604051610cb791906125be565b90815260200160405180910390208281548110610cd757610cd6612a00565b5b90600052602060002090600202016000019081610cf49190612c0b565b50600283604051610d0591906125be565b9081526020016040518091039020600183610d209190612bac565b81548110610d3157610d30612a00565b5b9060005260206000209060020201600101600284604051610d5291906125be565b90815260200160405180910390208281548110610d7257610d71612a00565b5b90600052602060002090600202016001019081610d8f9190612c0b565b505b600283604051610da191906125be565b9081526020016040518091039020805480610dbf57610dbe612cf3565b5b600190038181906000526020600020906002020160008082016000610de49190611be3565b600182016000610df49190611be3565b50509055610e10565b8080610e0890612af8565b915050610bac565b506000600384604051610e2391906125be565b908152602001604051809103902080549050905060005b81811015610fd35783604051602001610e5391906125be565b60405160208183030381529060405280519060200120600386604051610e7991906125be565b90815260200160405180910390208281548110610e9957610e98612a00565b5b90600052602060002001604051602001610eb39190612ab2565b6040516020818303038152906040528051906020012003610fc057600182610edb9190612bac565b8114610f6f57600385604051610ef191906125be565b9081526020016040518091039020600183610f0c9190612bac565b81548110610f1d57610f1c612a00565b5b90600052602060002001600386604051610f3791906125be565b90815260200160405180910390208281548110610f5757610f56612a00565b5b906000526020600020019081610f6d9190612c0b565b505b600385604051610f7f91906125be565b9081526020016040518091039020805480610f9d57610f9c612cf3565b5b600190038181906000526020600020016000610fb99190611be3565b9055610fd3565b8080610fcb90612af8565b915050610e3a565b5050505b5050565b6001818051602081018201805184825260208301602085012081835280955050505050506000915090508060000160009054906101000a900473ffffffffffffffffffffffffffffffffffffffff169080600101805461103a90612670565b80601f016020809104026020016040519081016040528092919081815260200182805461106690612670565b80156110b35780601f10611088576101008083540402835291602001916110b3565b820191906000526020600020905b81548152906001019060200180831161109657829003601f168201915b5050505050908060020180546110c890612670565b80601f01602080910402602001604051908101604052809291908181526020018280546110f490612670565b80156111415780601f1061111657610100808354040283529160200191611141565b820191906000526020600020905b81548152906001019060200180831161112457829003601f168201915b50505050509080600301805461115690612670565b80601f016020809104026020016040519081016040528092919081815260200182805461118290612670565b80156111cf5780601f106111a4576101008083540402835291602001916111cf565b820191906000526020600020905b8154815290600101906020018083116111b257829003601f168201915b5050505050908060040180546111e490612670565b80601f016020809104026020016040519081016040528092919081815260200182805461121090612670565b801561125d5780601f106112325761010080835404028352916020019161125d565b820191906000526020600020905b81548152906001019060200180831161124057829003601f168201915b50505050509080600501805461127290612670565b80601f016020809104026020016040519081016040528092919081815260200182805461129e90612670565b80156112eb5780601f106112c0576101008083540402835291602001916112eb565b820191906000526020600020905b8154815290600101906020018083116112ce57829003601f168201915b50505050509080600601805461130090612670565b80601f016020809104026020016040519081016040528092919081815260200182805461132c90612670565b80156113795780601f1061134e57610100808354040283529160200191611379565b820191906000526020600020905b81548152906001019060200180831161135c57829003601f168201915b50505050509080600701805461138e90612670565b80601f01602080910402602001604051908101604052809291908181526020018280546113ba90612670565b80156114075780601f106113dc57610100808354040283529160200191611407565b820191906000526020600020905b8154815290600101906020018083116113ea57829003601f168201915b50505050509080600801805461141c90612670565b80601f016020809104026020016040519081016040528092919081815260200182805461144890612670565b80156114955780601f1061146a57610100808354040283529160200191611495565b820191906000526020600020905b81548152906001019060200180831161147857829003601f168201915b5050505050905089565b60006004836040516114b191906125be565b9081526020016040518091039020826040516114cd91906125be565b908152602001604051809103902060009054906101000a900460ff16905092915050565b606060038260405161150391906125be565b9081526020016040518091039020805480602002602001604051908101604052809291908181526020016000905b828210156115dd57838290600052602060002001805461155090612670565b80601f016020809104026020016040519081016040528092919081815260200182805461157c90612670565b80156115c95780601f1061159e576101008083540402835291602001916115c9565b820191906000526020600020905b8154815290600101906020018083116115ac57829003601f168201915b505050505081526020019060010190611531565b505050509050919050565b600060608060608060608060008860405161160391906125be565b908152602001604051809103902060009054906101000a900460ff1661165e576040517f08c379a000000000000000000000000000000000000000000000000000000000815260040161165590612b8c565b60405180910390fd5b600060018960405161167091906125be565b9081526020016040518091039020604051806101200160405290816000820160009054906101000a900473ffffffffffffffffffffffffffffffffffffffff1673ffffffffffffffffffffffffffffffffffffffff1673ffffffffffffffffffffffffffffffffffffffff1681526020016001820180546116f090612670565b80601f016020809104026020016040519081016040528092919081815260200182805461171c90612670565b80156117695780601f1061173e57610100808354040283529160200191611769565b820191906000526020600020905b81548152906001019060200180831161174c57829003601f168201915b5050505050815260200160028201805461178290612670565b80601f01602080910402602001604051908101604052809291908181526020018280546117ae90612670565b80156117fb5780601f106117d0576101008083540402835291602001916117fb565b820191906000526020600020905b8154815290600101906020018083116117de57829003601f168201915b5050505050815260200160038201805461181490612670565b80601f016020809104026020016040519081016040528092919081815260200182805461184090612670565b801561188d5780601f106118625761010080835404028352916020019161188d565b820191906000526020600020905b81548152906001019060200180831161187057829003601f168201915b505050505081526020016004820180546118a690612670565b80601f01602080910402602001604051908101604052809291908181526020018280546118d290612670565b801561191f5780601f106118f45761010080835404028352916020019161191f565b820191906000526020600020905b81548152906001019060200180831161190257829003601f168201915b5050505050815260200160058201805461193890612670565b80601f016020809104026020016040519081016040528092919081815260200182805461196490612670565b80156119b15780601f10611986576101008083540402835291602001916119b1565b820191906000526020600020905b81548152906001019060200180831161199457829003601f168201915b505050505081526020016006820180546119ca90612670565b80601f01602080910402602001604051908101604052809291908181526020018280546119f690612670565b8015611a435780601f10611a1857610100808354040283529160200191611a43565b820191906000526020600020905b815481529060010190602001808311611a2657829003601f168201915b50505050508152602001600782018054611a5c90612670565b80601f0160208091040260200160405190810160405280929190818152602001828054611a8890612670565b8015611ad55780601f10611aaa57610100808354040283529160200191611ad5565b820191906000526020600020905b815481529060010190602001808311611ab857829003601f168201915b50505050508152602001600882018054611aee90612670565b80601f0160208091040260200160405190810160405280929190818152602001828054611b1a90612670565b8015611b675780601f10611b3c57610100808354040283529160200191611b67565b820191906000526020600020905b815481529060010190602001808311611b4a57829003601f168201915b5050505050815250509050806000015181602001518260400151836060015184608001518560a001518660c00151975097509750975097509750975050919395979092949650565b60008082604051611bc091906125be565b908152602001604051809103902060009054906101000a900460ff169050919050565b508054611bef90612670565b6000825580601f10611c015750611c20565b601f016020900490600052602060002090810190611c1f9190611c23565b5b50565b5b80821115611c3c576000816000905550600101611c24565b5090565b6000604051905090565b600080fd5b600080fd5b600080fd5b600080fd5b6000601f19601f8301169050919050565b7f4e487b7100000000000000000000000000000000000000000000000000000000600052604160045260246000fd5b611ca782611c5e565b810181811067ffffffffffffffff82111715611cc657611cc5611c6f565b5b80604052505050565b6000611cd9611c40565b9050611ce58282611c9e565b919050565b600067ffffffffffffffff821115611d0557611d04611c6f565b5b611d0e82611c5e565b9050602081019050919050565b82818337600083830152505050565b6000611d3d611d3884611cea565b611ccf565b905082815260208101848484011115611d5957611d58611c59565b5b611d64848285611d1b565b509392505050565b600082601f830112611d8157611d80611c54565b5b8135611d91848260208601611d2a565b91505092915050565b60008060408385031215611db157611db0611c4a565b5b600083013567ffffffffffffffff811115611dcf57611dce611c4f565b5b611ddb85828601611d6c565b925050602083013567ffffffffffffffff811115611dfc57611dfb611c4f565b5b611e0885828601611d6c565b9150509250929050565b60008115159050919050565b611e2781611e12565b82525050565b6000602082019050611e426000830184611e1e565b92915050565b600060208284031215611e5e57611e5d611c4a565b5b600082013567ffffffffffffffff811115611e7c57611e7b611c4f565b5b611e8884828501611d6c565b91505092915050565b600073ffffffffffffffffffffffffffffffffffffffff82169050919050565b6000611ebc82611e91565b9050919050565b611ecc81611eb1565b8114611ed757600080fd5b50565b600081359050611ee981611ec3565b92915050565b60008060008060008060008060006101208a8c031215611f1257611f11611c4a565b5b6000611f208c828d01611eda565b99505060208a013567ffffffffffffffff811115611f4157611f40611c4f565b5b611f4d8c828d01611d6c565b98505060408a013567ffffffffffffffff811115611f6e57611f6d611c4f565b5b611f7a8c828d01611d6c565b97505060608a013567ffffffffffffffff811115611f9b57611f9a611c4f565b5b611fa78c828d01611d6c565b96505060808a013567ffffffffffffffff811115611fc857611fc7611c4f565b5b611fd48c828d01611d6c565b95505060a08a013567ffffffffffffffff811115611ff557611ff4611c4f565b5b6120018c828d01611d6c565b94505060c08a013567ffffffffffffffff81111561202257612021611c4f565b5b61202e8c828d01611d6c565b93505060e08a013567ffffffffffffffff81111561204f5761204e611c4f565b5b61205b8c828d01611d6c565b9250506101008a013567ffffffffffffffff81111561207d5761207c611c4f565b5b6120898c828d01611d6c565b9150509295985092959850929598565b6000806000606084860312156120b2576120b1611c4a565b5b600084013567ffffffffffffffff8111156120d0576120cf611c4f565b5b6120dc86828701611d6c565b935050602084013567ffffffffffffffff8111156120fd576120fc611c4f565b5b61210986828701611d6c565b925050604084013567ffffffffffffffff81111561212a57612129611c4f565b5b61213686828701611d6c565b9150509250925092565b600081519050919050565b600082825260208201905092915050565b6000819050602082019050919050565b600081519050919050565b600082825260208201905092915050565b60005b838110156121a657808201518184015260208101905061218b565b60008484015250505050565b60006121bd8261216c565b6121c78185612177565b93506121d7818560208601612188565b6121e081611c5e565b840191505092915050565b6000604083016000830151848203600086015261220882826121b2565b9150506020830151848203602086015261222282826121b2565b9150508091505092915050565b600061223b83836121eb565b905092915050565b6000602082019050919050565b600061225b82612140565b612265818561214b565b9350836020820285016122778561215c565b8060005b858110156122b35784840389528151612294858261222f565b945061229f83612243565b925060208a0199505060018101905061227b565b50829750879550505050505092915050565b600060208201905081810360008301526122df8184612250565b905092915050565b6122f081611eb1565b82525050565b600082825260208201905092915050565b60006123128261216c565b61231c81856122f6565b935061232c818560208601612188565b61233581611c5e565b840191505092915050565b600061012082019050612356600083018c6122e7565b8181036020830152612368818b612307565b9050818103604083015261237c818a612307565b905081810360608301526123908189612307565b905081810360808301526123a48188612307565b905081810360a08301526123b88187612307565b905081810360c08301526123cc8186612307565b905081810360e08301526123e08185612307565b90508181036101008301526123f58184612307565b90509a9950505050505050505050565b600081519050919050565b600082825260208201905092915050565b6000819050602082019050919050565b600061243d83836121b2565b905092915050565b6000602082019050919050565b600061245d82612405565b6124678185612410565b93508360208202850161247985612421565b8060005b858110156124b557848403895281516124968582612431565b94506124a183612445565b925060208a0199505060018101905061247d565b50829750879550505050505092915050565b600060208201905081810360008301526124e18184612452565b905092915050565b600060e0820190506124fe600083018a6122e7565b81810360208301526125108189612307565b905081810360408301526125248188612307565b905081810360608301526125388187612307565b9050818103608083015261254c8186612307565b905081810360a08301526125608185612307565b905081810360c08301526125748184612307565b905098975050505050505050565b600081905092915050565b60006125988261216c565b6125a28185612582565b93506125b2818560208601612188565b80840191505092915050565b60006125ca828461258d565b915081905092915050565b7f50617469656e7420616c72656164792072656769737465726564000000000000600082015250565b600061260b601a836122f6565b9150612616826125d5565b602082019050919050565b6000602082019050818103600083015261263a816125fe565b9050919050565b7f4e487b7100000000000000000000000000000000000000000000000000000000600052602260045260246000fd5b6000600282049050600182168061268857607f821691505b60208210810361269b5761269a612641565b5b50919050565b60008190508160005260206000209050919050565b60006020601f8301049050919050565b600082821b905092915050565b6000600883026127037fffffffffffffffffffffffffffffffffffffffffffffffffffffffffffffffff826126c6565b61270d86836126c6565b95508019841693508086168417925050509392505050565b6000819050919050565b6000819050919050565b600061275461274f61274a84612725565b61272f565b612725565b9050919050565b6000819050919050565b61276e83612739565b61278261277a8261275b565b8484546126d3565b825550505050565b600090565b61279761278a565b6127a2818484612765565b505050565b5b818110156127c6576127bb60008261278f565b6001810190506127a8565b5050565b601f82111561280b576127dc816126a1565b6127e5846126b6565b810160208510156127f4578190505b612808612800856126b6565b8301826127a7565b50505b505050565b600082821c905092915050565b600061282e60001984600802612810565b1980831691505092915050565b6000612847838361281d565b9150826002028217905092915050565b6128608261216c565b67ffffffffffffffff81111561287957612878611c6f565b5b6128838254612670565b61288e8282856127ca565b600060209050601f8311600181146128c157600084156128af578287015190505b6128b9858261283b565b865550612921565b601f1984166128cf866126a1565b60005b828110156128f7578489015182556001820191506020850194506020810190506128d2565b868310156129145784890151612910601f89168261281d565b8355505b6001600288020188555050505b505050505050565b600060608201905081810360008301526129438186612307565b905081810360208301526129578185612307565b905061296660408301846122e7565b949350505050565b7f566965772041636365737320616c726561647920676976656e20746f2074686560008201527f20446f63746f7221000000000000000000000000000000000000000000000000602082015250565b60006129ca6028836122f6565b91506129d58261296e565b604082019050919050565b600060208201905081810360008301526129f9816129bd565b9050919050565b7f4e487b7100000000000000000000000000000000000000000000000000000000600052603260045260246000fd5b60008154612a3c81612670565b612a468186612582565b94506001821660008114612a615760018114612a7657612aa9565b60ff1983168652811515820286019350612aa9565b612a7f856126a1565b60005b83811015612aa157815481890152600182019150602081019050612a82565b838801955050505b50505092915050565b6000612abe8284612a2f565b915081905092915050565b7f4e487b7100000000000000000000000000000000000000000000000000000000600052601160045260246000fd5b6000612b0382612725565b91507fffffffffffffffffffffffffffffffffffffffffffffffffffffffffffffffff8203612b3557612b34612ac9565b5b600182019050919050565b7f50617469656e74206e6f74207265676973746572656400000000000000000000600082015250565b6000612b766016836122f6565b9150612b8182612b40565b602082019050919050565b60006020820190508181036000830152612ba581612b69565b9050919050565b6000612bb782612725565b9150612bc283612725565b9250828203905081811115612bda57612bd9612ac9565b5b92915050565b600081549050612bef81612670565b9050919050565b60008190508160005260206000209050919050565b818103612c19575050612cf1565b612c2282612be0565b67ffffffffffffffff811115612c3b57612c3a611c6f565b5b612c458254612670565b612c508282856127ca565b6000601f831160018114612c7f5760008415612c6d578287015490505b612c77858261283b565b865550612cea565b601f198416612c8d87612bf6565b9650612c98866126a1565b60005b82811015612cc057848901548255600182019150600185019450602081019050612c9b565b86831015612cdd5784890154612cd9601f89168261281d565b8355505b6001600288020188555050505b5050505050505b565b7f4e487b7100000000000000000000000000000000000000000000000000000000600052603160045260246000fdfea2646970667358221220c58b053b61b5784e96692d28348284cfdbd13c408b3fb08281022b040bd1726d64736f6c63430008130033",
  "immutableReferences": {},
  "source": "// SPDX-License-Identifier: MIT\r\npragma solidity ^0.8.19;\r\n\r\ncontract PatientRegistration {\r\n    struct Patient {\r\n        address walletAddress;\r\n        string name;\r\n        string dateOfBirth;\r\n        string gender;\r\n        string bloodGroup;\r\n        string homeAddress;\r\n        string email;\r\n        string hhNumber;\r\n        string password;\r\n    }\r\n\r\n    struct PatientList{\r\n        string patient_number;\r\n        string patient_name;\r\n    }\r\n\r\n    mapping(string => bool) public isPatientRegistered;\r\n    mapping(string => Patient) public patients;\r\n    mapping(string => PatientList[]) private Dpermission;\r\n    mapping(string => string[]) private Ppermission;\r\n    mapping(string => mapping(string => bool)) public doctorPermissions;\r\n\r\n    event PatientRegistered(string hhNumber, string name, address walletAddress);\r\n\r\n    function registerPatient(\r\n        address _walletAddress,\r\n        string memory _name,\r\n        string memory _dateOfBirth,\r\n        string memory _gender,\r\n        string memory _bloodGroup,\r\n        string memory _homeAddress,\r\n        string memory _email,\r\n        string memory _hhNumber,\r\n        string memory _password\r\n\r\n    ) external {\r\n        require(!isPatientRegistered[_hhNumber], \"Patient already registered\");\r\n\r\n        Patient memory newPatient = Patient({\r\n            walletAddress: _walletAddress,\r\n            name: _name,\r\n            dateOfBirth: _dateOfBirth,\r\n            gender: _gender,\r\n            bloodGroup: _bloodGroup,\r\n            homeAddress: _homeAddress,\r\n            email: _email,    \r\n            hhNumber: _hhNumber,        \r\n            password: _password // Store password in the struct\r\n        });\r\n\r\n        patients[_hhNumber] = newPatient;\r\n        isPatientRegistered[_hhNumber] = true;\r\n        emit PatientRegistered(_hhNumber, _name, _walletAddress);\r\n    }\r\n\r\n    function isRegisteredPatient(string memory _hhNumber) external view returns (bool) {\r\n        return isPatientRegistered[_hhNumber];\r\n    }\r\n    \r\n    // Add a function to validate patient's password\r\n    function validatePassword(string memory _hhNumber, string memory _password) external view returns (bool) {\r\n        require(isPatientRegistered[_hhNumber], \"Patient not registered\");\r\n        return keccak256(abi.encodePacked(_password)) == keccak256(abi.encodePacked(patients[_hhNumber].password));\r\n    }\r\n\r\n    function getPatientDetails(string memory _hhNumber) external view returns (\r\n    address walletAddress,\r\n    string memory name,\r\n    string memory dateOfBirth,\r\n    string memory gender,\r\n    string memory bloodGroup,\r\n    string memory homeAddress,\r\n    string memory email\r\n    ) {\r\n        require(isPatientRegistered[_hhNumber], \"Patient not registered\");\r\n        Patient memory patient = patients[_hhNumber];\r\n        return (patient.walletAddress, patient.name, patient.dateOfBirth, patient.gender, patient.bloodGroup, patient.homeAddress, patient.email);\r\n    }\r\n\r\n    function grantPermission(\r\n        string memory _patientNumber,\r\n        string memory _doctorNumber,\r\n        string memory _patientName\r\n    ) external {\r\n        require(!doctorPermissions[_patientNumber][_doctorNumber], \"View Access already given to the Doctor!\");\r\n        // Check if the patient number already exists in the doctor's list\r\n        bool exists = false;\r\n        for (uint i = 0; i < Dpermission[_doctorNumber].length; i++) {\r\n            if (keccak256(abi.encodePacked(Dpermission[_doctorNumber][i].patient_number)) == keccak256(abi.encodePacked(_patientNumber))) {\r\n                exists = true;\r\n                break;\r\n            }\r\n        }\r\n\r\n        // If the patient number does not exist, add it to the doctor's list\r\n        if (!exists) {\r\n            PatientList memory newRecord = PatientList(\r\n                _patientNumber,\r\n                _patientName\r\n            );\r\n            Dpermission[_doctorNumber].push(newRecord);\r\n        }\r\n\r\n        // Add doctor to patient's list\r\n        Ppermission[_patientNumber].push(_doctorNumber);\r\n\r\n        doctorPermissions[_patientNumber][_doctorNumber] = true;\r\n    }\r\n\r\n    function revokePermission(\r\n        string memory _patientNumber,\r\n        string memory _doctorNumber\r\n    ) external {\r\n        if (!doctorPermissions[_patientNumber][_doctorNumber]) {\r\n            return; // Access already not given\r\n        }\r\n        \r\n        doctorPermissions[_patientNumber][_doctorNumber] = false;\r\n\r\n        // Remove the patient from the doctor's list (Swap-and-Pop method)\r\n        uint256 docLen = Dpermission[_doctorNumber].length;\r\n        for (uint i = 0; i < docLen; i++) {\r\n            if (keccak256(abi.encodePacked(Dpermission[_doctorNumber][i].patient_number)) == keccak256(abi.encodePacked(_patientNumber))) {\r\n                if (i != docLen - 1) {\r\n                    Dpermission[_doctorNumber][i].patient_number = Dpermission[_doctorNumber][docLen - 1].patient_number;\r\n                    Dpermission[_doctorNumber][i].patient_name = Dpermission[_doctorNumber][docLen - 1].patient_name;\r\n                }\r\n                Dpermission[_doctorNumber].pop();\r\n                break;\r\n            }\r\n        }\r\n\r\n        // Remove the doctor from the patient's list (Swap-and-Pop method)\r\n        uint256 patLen = Ppermission[_patientNumber].length;\r\n        for (uint i = 0; i < patLen; i++) {\r\n            if (keccak256(abi.encodePacked(Ppermission[_patientNumber][i])) == keccak256(abi.encodePacked(_doctorNumber))) {\r\n                if (i != patLen - 1) {\r\n                    Ppermission[_patientNumber][i] = Ppermission[_patientNumber][patLen - 1];\r\n                }\r\n                Ppermission[_patientNumber].pop();\r\n                break;\r\n            }\r\n        }\r\n    }\r\n\r\n    function isPermissionGranted(string memory _patientNumber,string memory _doctorNumber) external view returns (bool) {\r\n        return doctorPermissions[_patientNumber][_doctorNumber];\r\n    }\r\n\r\n    function getPatientList(string memory _doctorNumber) public view returns (PatientList[] memory) {\r\n        return Dpermission[_doctorNumber];\r\n    }\r\n\r\n    function getDoctorList(string memory _patientNumber) public view returns (string[] memory) {\r\n        return Ppermission[_patientNumber];\r\n    }\r\n}\r\n",
  "sourcePath": "D:\\blockchain project\\src\\contracts\\PatientRegistration.sol",
  "compiler": {
    "name": "solc",
    "version": "0.8.19+commit.7dd6d404.Emscripten.clang"
  },
  "schemaVersion": "3.4.16",
  "updatedAt": "2026-04-06T12:38:27.370Z",
  "networkType": "ethereum",
  "devdoc": {
    "kind": "dev",
    "methods": {},
    "version": 1
  },
  "userdoc": {
    "kind": "user",
    "methods": {},
    "version": 1
  }
}